:020000040800F2
:100000000000022005740008F96D0008FB6D00086F
:10001000FD6D0008FF6D0008016E00080000000083
:10002000000000000000000000000000036E000857
:10003000056E000800000000076E0008096E000849
:10004000557400085574000855740008557400086C
:10005000557400085574000855740008557400085C
:10006000557400085574000855740008156E000892
:100070003D6E00084D6E0008756E0008856E000824
:10008000956E0008A56E00085574000855740008A8
:10009000557400085574000855740008557400081C
:1000A000557400085574000855740008557400080C
:1000B00055740008557400085574000855740008FC
:1000C000557400085574000855740008B56E000892
:1000D000C56E000855740008557400085574000872
:1000E000557400085574000800000000557400089D
:1000F000557400085574000855740008D56E000842
:10010000557400085574000855740008E56E000821
:10011000557400085574000855740008557400089B
:10012000F56E0008056F0008557400085574000846
:10013000557400085574000855740008557400087B
:1001400000000000000000000000000000000000AF
:10015000557400085574000855740008557400085B
:100160005574000855740008156F0008256F0008C5
:1001700055740008356F0008557400080000000031
:10018000557400085574000855740008557400082B
:10019000456F0008556F0008656F0008557400082A
:1001A000557400085574000855740008557400080B
:1001B00055740008557400085574000855740008FB
:1001C00055740008557400085574000855740008EB
:1001D00055740008557400085574000855740008DB
:1001E00055740008557400085574000855740008CB
:1001F00055740008557400085574000855740008BB
:1002000055740008557400085574000855740008AA
:10021000557400085574000855740008557400089A
:10022000557400085574000855740008000000005B
:10023000557400085574000800000000557400084B
:1002400055740008756F0008856F00085574000824
:10025000557400085574000855740008557400085A
:10026000557400085574000855740008557400084A
:10027000557400085574000855740008000000000B
:1002800055740008000000005574000800000000CC
:08029000000000005574000895
:1002980010B5054C237833B9044B13B10448AFF3B8
:1002A80000800123237010BD7802002000000000A8
:1002B8005076000808B5034B1BB103490348AFF358
:1002C800008008BD000000007C0200205076000875
:1002D80053B94AB9002908BF00281CBF4FF0FF31A5
:1002E8004FF0FF3000F072B9ADF1080C6DE904CEA3
:1002F80000F006F8DDF804E0DDE9022304B07047F9
:100308002DE9F047089E04468846002B4BD18A42C7
:10031800154667D9B2FA82F24AB1C2F1200701FA4A
:1003280002F320FA07F7954047EA030894404FEA9A
:10033800154E230CB8FBFEF71FFA85FC0EFB178839
:1003480043EA084307FB0CF1994209D9EB1807F176
:10035800FF3080F01B81994240F21881023F2B4404
:100368005B1AA4B2B3FBFEF00EFB103344EA03445D
:1003780000FB0CFCA44509D92C1900F1FF3380F0CF
:100388000781A44540F2048102382C4440EA074022
:10039800A4EB0C0400271EB1D4400023C6E9004397
:1003A8003946BDE8F0878B4209D9002E00F0EB8072
:1003B8000027C6E9000138463946BDE8F087B3FA98
:1003C80083F7002F47D18B4202D3824200F2FA8092
:1003D800841A61EB030301209846002EE0D0C6E999
:1003E8000048DDE702B9FFDEB2FA82F2002A40F0E7
:1003F8008F80491B4FEA154E1FFA85F80127B1FB7C
:10040800FEFC230C0EFB1C1143EA014308FB0CF114
:10041800994207D9EB180CF1FF3002D2994200F249
:10042800CD808446591AA3B2B1FBFEF00EFB10141E
:1004380043EA044408FB00F8A04507D92C1900F149
:10044800FF3302D2A04500F2B6801846A4EB080498
:1004580040EA0C409FE7C7F1200CBB4022FA0CFE93
:100468004EEA030E01FA07F420FA0CF521FA0CF310
:100478004FEA1E482543B3FBF8F92C0C08FB193347
:100488001FFA8EFA44EA034309FB0AF49C4202FA73
:1004980007F200FA07F10BD91EEB030309F1FF304D
:1004A80080F087809C4240F28480A9F1020973445D
:1004B8001B1BADB2B3FBF8F008FB103345EA03444D
:1004C80000FB0AFAA24508D91EEB040400F1FF3329
:1004D8006BD2A24569D90238744440EA0940A0FBAE
:1004E8000289A4EB0A044C45C2464B4654D351D06A
:1004F800002E69D0B1EB0A0564EB030404FA0CFC86
:10050800FD40FC404CEA0505C6E90054002747E7D2
:10051800C2F1200320FA03F7954001FA02F021FA0C
:1005280003F34FEA154E3843010CB3FBFEF71FFAED
:1005380085F80EFB173341EA034107FB08F38B42AA
:1005480004FA02F407D9691807F1FF3C2FD28B424D
:100558002DD9023F2944CB1A81B2B3FBFEF00EFB22
:10056800103341EA034100FB08F38B4207D96918AD
:1005780000F1FF3C17D28B4215D902382944C91A19
:1005880040EA07473BE73746304609E70746E7E6CC
:100598001846FBE64145ABD2B8EB020A69EB0E02FE
:1005A80001381346A4E76046E9E7184695E7674629
:1005B800D1E781467CE702382C4447E7ACF1020CCE
:1005C8002B442FE7384608E73746E9E6704700BF6F
:1005D80010B504460E4B18784FF47A73B3FBF0F35A
:1005E8000C4A1068B0FBF3F000F09EF868B90F2CC5
:1005F80001D901200AE0002221464FF0FF3000F027
:1006080053F8034B5C60002000E0012010BD00BFE0
:10061800000000208800002010B5032000F032F808
:100628000020FFF7D5FF10B10124204610BD044675
:1006380006F088F8F9E70000034B1B78034A1168B5
:100648000B441360704700BF000000209402002094
:10065800014B1868704700BF9402002038B5044663
:10066800FFF7F6FF0546B4F1FF3F02D0044B1B78B5
:100678001C44FFF7EDFF401BA042FAD338BD00BF72
:10068800000000200649CB6823F4E0631B041B0C20
:10069800000200F4E0600343024A1A43CA6070474C
:1006A80000ED00E00000FA0530B4154BDB68C3F339
:1006B8000223C3F10704042C28BF04241D1D062DA2
:1006C80014D9033B4FF0FF3505FA04F421EA04017D
:1006D800994005FA03F322EA03031943002807DBCC
:1006E8000901C9B2074B195430BC70470023E9E728
:1006F80000F00F000901C9B2034B1954F4E700BF19
:1007080000ED00E000E400E014ED00E0002807DB65
:1007180000F01F02400901239340024A42F82030AA
:10072800704700BF00E100E00138B0F1807F0AD2D5
:10073800064B5860064AF02182F823100020986082
:1007480007221A6070470120704700BF10E000E0E0
:1007580000ED00E0042805D0054A136823F00403DF
:1007680013607047024A136843F00403136070472C
:1007780010E000E0704708B5FFF7FCFF08BD000077
:100788000268D3B2103B0949A1FB03131B090849AE
:10079800C95CC165032B04D8064B13408365806D83
:1007A8007047044B134004338365F8E7ABAAAAAA41
:1007B8006876000800FCFFFF83699BB9836A012BF8
:1007C8000AD01BB1022B01D000207047C36A13F076
:1007D800807F2ED100207047C36AB3F1C07F2AD032
:1007E80000207047B3F5005F06D0836A022B2AD930
:1007F800032B16D000207047836A032B03D8DFE849
:1008080003F01C041C0A00207047C36A13F0807FA1
:1008180015D100207047C36AB3F1C07F11D0002002
:100828007047C36A13F0807F01D001207047002011
:100838007047012070470120704701207047012050
:100848007047012070470120704700000368154A6F
:100858001A448C2A15D9DAB2103A1349A1FB0212AC
:10086800120912491944A82900D80832104B134418
:100878009B0003660F4B4366012303FA02F282666C
:100888007047DBB2083B0C4AA2FB03231B090B4A47
:100898001A44920002660A4A4266012202FA03F3E7
:1008A80083667047F8ABFDA7ABAAAAAAF0FBFDBF09
:1008B8000082001080080240CDCCCCCC00960016F7
:1008C8008058025810B404680279531E072B0DD8BB
:1008D8000B4921448C290CD80A4911448900C16666
:1008E800094A0267012202FA03F343675DF8044BE1
:1008F8007047064911448900C166054A0267F1E755
:10090800F8ABFDA73F960016405902583F820010E9
:100918004009024070B50446FFF79AFE002C00F02B
:10092800C08005462268604B1344B3F5956F53D8D1
:10093800002384F83430022384F83530136823F018
:100948000103136023681A6812F0010F0BD0FFF738
:100958007FFE401B0528F5D920236365032384F80F
:100968003530012083E01A6850481040A168E268D9
:100978000A4321690A4361690A43A1690A43E16993
:100988000A43216A0A430243616A042919D01A609A
:100998002668756925F00705636A1D43042B07D18E
:1009A800A36A1D43E36A1BB12046FFF705FF68B938
:1009B80075612046FFF7E4FEE26D3F2393408360B4
:1009C8003CE0E16A206B01430A43E0E740236365AA
:1009D800012084F835004AE0354B13448C2B4CD861
:1009E800002384F83430022384F835301368314802
:1009F8001840A368402B3ED0802B39D00023E168F3
:100A080043EAD103216943EAD103616943EAD10387
:100A1800A16943EAD103E169C90801F020010B4348
:100A2800216A43EA1113034313602268204B1344DD
:100A3800214AA2FB03231B099B00E3652046FFF71D
:100A480005FFA368802B1FD0236E22791A60636E7E
:100A5800A26E5A606368013B072B18D90023E3662E
:100A68002367636700206065012384F8353070BD13
:100A78004FF48043C3E71023C1E740236365032392
:100A880084F835300120F2E700236360DCE7204674
:100A9800FFF718FFE36E00221A60236F626F5A6037
:100AA800E0E70120E3E700BFF0FFFDBF3F8010FE55
:100AB800F8ABFDA70F80FFFFCDCCCCCC00284ED0E3
:100AC80008B5034690F83520D2B2022A03D0802216
:100AD8004265012008BD026823491144B1F5956FAC
:100AE8002FD9116821F00E01116001681E4A0A44CD
:100AF800B2F5956F2ED80A6822F001020A60196EC5
:100B08000A6822F480720A60D96D01228A40174966
:100B18004A605A6E996E5160DA6E32B1116821F4EA
:100B2800807111601A6F596F5160002283F8342068
:100B3800012283F835201A6D9AB118469047002093
:100B4800C8E7042180F83510136823F00103136007
:100B58000020BFE70A6822F001020A60CFE70120FF
:100B680070470020B6E700BFF0FFFDBF00540258F1
:100B7800F0B583B00446002301938F4B1B688F4A5E
:100B8800A2FB03239D0A876D3E6802688C4B1344C1
:100B9800B3F5956F00F21A81C16D08238B4033427B
:100BA8000FD0136813F0040F0BD0136823F004035D
:100BB8001360C26D08239340BB60436D43F001038B
:100BC8004365E26D7F4B9340334210D021687C4AE5
:100BD8000A44B2F5956F09D84A6912F0800F06D019
:100BE800BB60636D43F00203636500E00B68E26D70
:100BF800754B9340334210D02168714A0A44B2F5CC
:100C0800956F09D80A6812F0020F06D0BB60636DB1
:100C180043F00403636500E00B68E26D1023934022
:100C280033422DD02168664A0A44B2F5956F12D82E
:100C38000A68C2F3C0021AB3BB6023681A6812F4C8
:100C4800802F11D01B6813F4002F08D1236CBBB17F
:100C58002046984714E00A68C2F38002EBE7A36CC9
:100C680073B1204698470BE01A6812F4807F03D1CD
:100C78001A6822F008021A60236C0BB120469847C4
:100C8800E26D2023934033425FD021684C4A0A44E6
:100C9800B2F5956F19D80A68C2F30012002A54D029
:100CA800BB6094F83530DBB2042B12D023681A6885
:100CB80012F4802F37D01B6813F4002F2ED1636CE9
:100CC800002B42D0204698473FE00A68C2F3400212
:100CD800E4E72268136823F0160313602268536957
:100CE80023F080035361236CA3B12268136823F0B7
:100CF80008031360E26D3F239340BB60002384F830
:100D08003430012384F83530236D002B49D0204638
:100D1800984746E0A36C002BE7D1EBE7E36BA3B160
:100D28002046984711E01A6812F4807F09D11A68A2
:100D380022F010021A60002384F83430012384F86A
:100D48003530E36B0BB120469847636D4BB3636D49
:100D580013F0010F21D0042384F835302268184B92
:100D68001344B3F5956F1ED8136823F0010313607D
:100D7800019B01330193AB4204D823681B6813F02D
:100D8800010FF5D1002384F8343023681B6813F071
:100D9800010F0DD0032384F83530E36C0BB12046E6
:100DA800984703B0F0BD136823F001031360DFE731
:100DB800012384F83530F0E788000020B5814E1B08
:100DC800F0FFFDBF0100800004008000354B134494
:100DD8008C2BE6D8344B1868E16D04238B401842FD
:100DE80018D0136813F0040F14D0136813F0200FF1
:100DF80003D1136823F0040313602B494B68E06D9B
:100E08000422824013434B60236C002BC9D0204638
:100E18009847C6E7244B186802238B4018421ED017
:100E2800136813F0020F1AD0136813F0200F09D1BA
:100E3800136823F00A031360002384F83430012375
:100E480084F8353018494B68E06D0222824013431C
:100E58004B60E36B002BA4D020469847A1E7124BC8
:100E68001868082303FA01F108429AD0136813F0AE
:100E7800080F96D0136823F00E0313600A484268DF
:100E8800E16D012303FA01F10A4342606365002220
:100E980084F8342084F83530E36C002B81D0204668
:100EA80098477EE7F8ABFDA70054025800230F2BA4
:100EB80000F2E980F0B482B03DE0092200E00022AF
:100EC800B2403A430234704E46F824206F4A146800
:100ED800EA4302EA04064F6817F4803F01D045EA66
:100EE80004066A4C2660666802EA06044F6817F42E
:100EF800003F01D045EA0604644E74604FF0B044E8
:100F0800246802EA04064F6817F4801F01D045EAF6
:100F180004064FF0B0442660646822404E6816F418
:100F2800001F01D045EA04024FF0B044626001336B
:100F38000F2B00F2A58001229A400C6804EA0205F2
:100F4800AA42F4D14C68122C18BF022C10D1DE082A
:100F5800083650F826C003F00704A7000F24BC4049
:100F68002CEA040C0C69BC4044EA0C0440F8264006
:100F780004685F000326BE40F64306EA040C4C688A
:100F880004F00304BC4044EA0C0404604C6804F117
:100F9800FF3C112C18BFBCF1010F01D9122C11D143
:100FA800846806EA040CCC68BC4044EA0C048460FB
:100FB800446824EA020C4C68C4F300129A4042EADE
:100FC8000C024260C26816408A68BA403243C26066
:100FD8004A6812F0805FAAD02D4AD2F8F44044F053
:100FE8000204C2F8F440D2F8F42002F0020201929E
:100FF800019A9C08A61C244A52F8267003F00302A2
:1010080096000F22B24027EA0207224A90423FF494
:1010180056AF02F58062904222D002F5806290427B
:1010280020D002F5806290421ED002F58062904284
:101038001CD002F5806290421AD002F5806290427C
:1010480018D002F58062904216D002F58062904274
:1010580014D002F5806290423FF42FAF0A222FE7A6
:1010680001222DE702222BE7032229E7042227E7A2
:10107800052225E7062223E7072221E708221FE7A2
:1010880002B0F0BC70477047000400588000005858
:1010980000440258000002580AB94183704701838E
:1010A80070472DE9F04383B007460D46D0F800801D
:1010B800CA00521A93000344DE6C1A6DB61A1B6CF0
:1010C8009E4200D91E4616F1030902D44FEAA90927
:1010D80019E009F10309F9E716F103092FD44FEADA
:1010E800A909EB005B1B9C003C44616C3B7C0093B2
:1010F800B3B2EAB2404604F0EBF8636C334463647D
:10110800236D33442365414608EB451303F510630B
:101118009B699BB24B4515D9EA00521B93003B448F
:101128001A6DDB6C9A420DD263B19E1AC5EBC502EB
:1011380093003B441B6C9E42CED91E46CCE709F176
:101148000309CCE7002E03DD002003B0BDE8F083DF
:101158000123AB40D1F8345825EA0305C1F83458C7
:10116800F2E7002879D0F0B58BB00446032380F865
:10117800B93305F05DFF206803F02CFD254655F8CE
:10118800107B6E460FCD0FC60FCD0FC695E8030036
:1011980086E80300231D0ECB384603F0D7FC002158
:1011A800206803F01DFD002210E0D100891A8B0091
:1011B8002344012183F8391083F83820DA87002185
:1011C80083F83B1019645964D96401320E2AECD9AA
:1011D800002218E0D100891A8B002344002183F8EB
:1011E800F91183F8F821DA8783F8FB11C3F80012A4
:1011F800C3F80412C3F80C12236802F1400003EB91
:101208008003596001320E2AE4D9254655F8107B2F
:101218006E460FCD0FC60FCD0FC695E8030086E8C2
:101228000300231D0ECB384603F0F0FC012384F89D
:10123800B933A36A012B08D0636A012B09D020684F
:1012480004F0F1F800200BB0F0BD204600F08CFC53
:10125800F2E7204600F09CFCF1E70120704710B54A
:101268000446006804F0D3F8206803F0ADFC0020C1
:1012780010BD00002DE9F04704460568284604F033
:101288000DF908B1BDE8F0870646206804F0D7F8E4
:101298000028F7D0206804F0D2F810F0020F02D02E
:1012A800236802225A61206804F0C9F810F4002F5C
:1012B80040F090803746206804F0C1F810F4802F81
:1012C80040F01581206804F0BAF80028C0F2818146
:1012D800206804F0B4F810F4006F09D0D5F8083885
:1012E80013F0010F40F08E8123684FF400625A61B9
:1012F800206804F0A4F810F0006F14D023684FF0B1
:1013080000625A6194F8EC33002B40F07F81012190
:1013180084F8EC1323685B6DC3F38303C4F8F033DC
:10132800204600F043FC206804F089F810F4805F40
:1013380040F07081206804F082F810F4005F40F0FB
:10134800B881206804F07BF810F0100F14D02268E0
:10135800936923F0100393612E6A06F00F08C6F311
:101368004343022B00F05082062B00F06E82226865
:10137800936943F010039361206804F060F810F05B
:10138800080F40F07682206804F059F810F4801FA6
:1013980040F07682206804F052F810F4001F40F004
:1013A8007882206804F04BF810F0804F40F07A8281
:1013B800206804F044F810F0040F3FF463AF23688A
:1013C8005D6815F0040F40F07582226853682B435E
:1013D800536057E7206804F036F88046374648E0FF
:1013E800D5F8082B12F4004F61D04FF400429A60F0
:1013F8005DE0F900C91B8A002244D2F800121B697B
:10140800C3F31203C91AC2F81012D2F80012D2F8A4
:1014180004320B44C2F804324CE0002F51D1C7EB20
:10142800C70293002344D3F80C32002B49D104F5AA
:101438006F720121206804F051F842E0204605F05F
:101448003BFE05EB47130822C3F8082B19F0100FD1
:1014580004D005EB47131022C3F8082B19F0200F0E
:1014680004D005EB47132022C3F8082B01374FEAB5
:101478005808B8F1000F3FF41EAF18F0010FF5D06F
:101488005FFA87FA5146206803F0EDFF814610F0B5
:10149800010F16D005EB471303F5306301229A605C
:1014A800296CBC4A914202D92269012A98D0226942
:1014B800012A9ED05146204605F006FE2369012BDD
:1014C800ABD019F0080FC1D02A6CB24B9A42B5D9EB
:1014D8002369012BB2D1D5F8083B13F4004FADD0E6
:1014E80005EB47134FF40042C3F8082BA6E7206822
:1014F80003F0B1FF804637462EE0FA00D21B930076
:101508002344196C5A6C0A445A6446E019F0080FCF
:1015180004D005EB47130822C3F8082919F0100F67
:1015280004D005EB47131022C3F8082919F0400F1F
:1015380004D005EB47134022C3F8082919F0020F1D
:1015480004D005EB47130222C3F8082919F0800FCD
:101558003AD101374FEA5808B8F1000F3FF4B2AE5C
:1015680018F0010FF5D05FFA87FA5146206803F0AA
:1015780083FF814610F0010FC8D0012202FA07F05C
:10158800D5F8343823EA0003C5F8343805EB471397
:10159800C3F8082923699342AFD05146204605F085
:1015A8009FFD2369012BB1D1002FAFD1C7EBC70233
:1015B80093002344DB6C002BA8D104F56F72012142
:1015C800206803F08BFFA1E739462046FFF769FD45
:1015D800BFE7D5F8043823F00103C5F8043894F8B8
:1015E800EC33012B07D0204605F0B4FD23684FF0FB
:1015F80000425A616CE6002184F8EC13204600F0A2
:10160800D5FAF3E7204605F08DFD6DE6204605F096
:1016180089FD88E6A94605F50068D8F8043023F066
:101628000103C8F804301021206803F09DFB07E08F
:1016380009EB4613FF22C3F80829C3F8082B013623
:101648006368B342F4D84FF0FF33C8F81830D8F8BD
:101658001C3043F00113C8F81C30236BE3B1D8F8F1
:10166800843043F00B03C8F88430D8F8443043F092
:101678000B03C8F84430D5F8003823F4FE63C5F8E6
:10168800003804F56F72217C206803F027FF236877
:101698004FF480525A614DE6D8F8143043F00B03EA
:1016A800C8F81430D8F8103043F00B03C8F81030DD
:1016B800E1E7206803F0F6FE2268D36823F470534C
:1016C800D360206803F07DFB88B90023E3604FF402
:1016D800007363612268D36843F41053D3602046D3
:1016E80005F00FFD23684FF400525A6129E60323E1
:1016F800E3604023636100F005FF274B0344274A5A
:10170800934205D82268D36843F47053D360E6E760
:10171800234B0344234A934205D82268D36843F4F1
:101728006053D360DBE7204B0344204A934205D83B
:101738002268D36843F45053D360D0E71C4B03446A
:101748001C4A934205D82268D36843F44053D360B7
:10175800C5E7194B0344194A934205D82268D36850
:1017680043F43053D360BAE7154B0344154A934208
:1017780005D82268D36843F42053D360AFE7124BEF
:101788000344124A934223D82268D36843F410537F
:10179800D360A4E70931544F405327FFFF340C00AE
:1017A800401E1BFF3F420F0000DC0BFF7F4F120063
:1017B800808CF9FE1FD6130060B6E5FE5FE31600C5
:1017C80000D3CEFE3F771B00C05BB3FEBF91210064
:1017D8003A4B03443A4A934205D82268D36843F403
:1017E8000053D3607BE7374B0344374A934205D80D
:1017F8002268D36843F4E053D36070E72268D36863
:1018080043F4C053D3606AE747F6F0731E423FF4CF
:10181800AEAD36094FEAC80AAAEB08034FEA8309B6
:10182800A144C6F30A02D9F80412284603F064FD5D
:10183800C6F30A06D9F804323344C9F80432D9F891
:1018480010321E44C9F8106291E5082204F56F7140
:10185800284603F051FDC6F30A164FEAC803A3EB66
:1018680008018A002244D2F810321E44C2F81062DD
:101878007DE5204605F03FFC236808225A6182E591
:10188800F9B2204605F072FC23684FF480125A61C1
:1018980080E5F9B2204605F063FC23684FF4001296
:1018A8005A617EE5204605F067FC23684FF08042C8
:1018B8005A617DE5204605F065FC86E500CA91FE83
:1018C8001F753800E05459FEDF9C410090F8B8338A
:1018D800012B0BD010B50446012380F8B8330068FB
:1018E80003F085FD002084F8B80310BD022070477E
:1018F80070B54DB2002D22DB01F07F06C6EBC6069F
:10190800B40004F5FC74044401F07F012170ED0F6C
:101918006570A260E37005B1E180022B17D090F8E2
:10192800B833012B16D00546012380F8B833214679
:10193800006803F067FA002085F8B80370BD01F06D
:101948007F06C6EBC606B40038340444DCE700233F
:101958002371E4E70220F1E710B54AB2002A1CDB44
:1019680001F07F04C4EBC404A30003F5FC73034433
:1019780001F07F011970D20F5A7090F8B823012A2C
:1019880013D00446012280F8B8231946006803F0F2
:1019980081FA002084F8B80310BD01F07F04C4EB7D
:1019A800C404A30038330344E2E70220F4E770B527
:1019B80001F07F06F500A91B8C0004F5FC740119E1
:1019C800AD1BAC000444C4F80422C4F80C32002354
:1019D800C4F8103284F8F93184F8F8610369012BEE
:1019E80006D066B1DAB2006803F094FA002070BD40
:1019F800C6EBC605AC000444C4F80822F1E7DAB225
:101A0800006803F0B7FBF1E770B501F07F06F50059
:101A1800A91B8C0038340119AD1BAC000444626466
:101A2800E36400232365012384F8393084F838609F
:101A38000369012B06D05EB1DAB2006803F06AFAD6
:101A4800002070BDC6EBC605AC000444A264F2E7F2
:101A5800DAB2006803F08EFBF2E738B54AB2002A22
:101A68001DDBC1EBC104A30003F5FC73034401248F
:101A78009C7001F07F041C70D20F5A7090F8B82344
:101A8800012A1BD00546012280F8B82319460068B0
:101A980003F046FC5CB1002085F8B80338BD01F0BE
:101AA8007F04C4EBC404A30038330344DFE705F51F
:101AB8006F72297C286803F011FDECE70220EDE73E
:101AC80010B54AB2002A1CDBC1EBC104A30003F520
:101AD800FC73034400249C7001F07F011970D20F3D
:101AE8005A7090F8B823012A13D00446012280F8CE
:101AF800B8231946006803F045FC002084F8B803B1
:101B080010BD01F07F04C4EBC404A30038330344C0
:101B1800E0E70220F4E730B40468606A29B10D46B2
:101B2800A36A00EB134000230CE040EA0240A062E5
:101B380012E003F1400104EB8101496800EB114018
:101B48000133DBB2691E8B42F3DB40EA024005F148
:101B58003F0104EB81014860002030BC70470368F6
:101B68005962002070470000024603680121C0F84E
:101B7800F413002082F8EC039A6942F000629A613B
:101B8800596D024A0A435A65704700BF03000010A6
:101B980003680122C0F8F8239A6B42F400329A6372
:101BA8009A6B42F480229A630020704770470000C5
:101BB800024AD36843F08073D360704700480258E4
:101BC80038B50446036813F0010F2AD0AC4B1B69E3
:101BD80003F03803102B1BD0A94B1B6903F0380303
:101BE800182B0FD06368B3F5803F44D0002B58D131
:101BF800A34B1A6822F480321A601A6822F48022F1
:101C08001A603DE09E4B9B6A03F00303022BE9D167
:101C18009B4B1B6813F4003F03D06368002B00F054
:101C28008382236813F0020F00F09480944B1B69A1
:101C380013F0380F60D0924B1B6903F03803182B50
:101C480055D0E368002B00F0BD808D490A6822F06A
:101C5800190213430B60FEF7FBFC0546884B1B6813
:101C680013F0040F40F09E80FEF7F2FC401B0228A0
:101C7800F4D903205DE2824A136843F48033136089
:101C880063682BB3FEF7E4FC05467D4B1B6813F431
:101C9800003FC6D1FEF7DCFC401B6428F5D90320C1
:101CA80047E2B3F5A02F09D0754B1A6822F48032A9
:101CB8001A601A6822F480221A60E1E7704B1A68E9
:101CC80042F480221A601A6842F480321A60D7E718
:101CD800FEF7BEFC05466A4B1B6813F4003FA0D014
:101CE800FEF7B6FC401B6428F5D9032021E2644BBB
:101CF8009B6A13F0030FA4D1614B1B6813F0040F08
:101D080003D0E368002B00F011825D4A136823F0CA
:101D18001903E1680B431360FEF79AFC0546584B1C
:101D28001B6813F0040F06D1FEF792FC401B022833
:101D3800F5D90320FDE15248436823F47C33216937
:101D48004FF47C3292FAA2F2B2FA82F201FA02F26B
:101D580013434360236813F0100F66D0484B1B6988
:101D680003F03803082B47D0454B1B6903F03803B1
:101D7800182B3BD0E369002B00F08480404A13689D
:101D880043F080031360FEF763FC05463C4B1B6879
:101D980013F4807F64D1FEF75BFC401B0228F5D961
:101DA8000320C6E13648436823F47C3321694FF4A5
:101DB8007C3292FAA2F2B2FA82F201FA02F21343E8
:101DC8004360C7E72E4A136823F001031360FEF748
:101DD8003FFC05462A4B1B6813F0040FBAD0FEF7E8
:101DE80037FC401B0228F5D90320A2E1244B9B6A4B
:101DF80003F00303012BBDD1214B1B6813F4807F33
:101E080004D0E369802B01D0012092E11C4843688B
:101E180023F0F843216A4FF0F84292FAA2F2B2FA9C
:101E280082F201FA02F213434360236813F0080FA9
:101E380050D06369002B39D0114A536F43F0010326
:101E48005367FEF705FC05460D4B5B6F13F0020F59
:101E580040D1FEF7FDFB401B0228F5D9032068E1BD
:101E68000748436823F0F843216A4FF0F84292FA92
:101E7800A2F2B2FA82F201FA02F213434360D4E703
:101E880000440258AC4A136823F080031360FEF73D
:101E9800DFFB0546A84B1B6813F4807FC5D0FEF70F
:101EA800D7FB401B0228F5D9032042E1A24A536F11
:101EB80023F001035367FEF7CBFB05469E4B5B6F90
:101EC80013F0020F06D0FEF7C3FB401B0228F5D91A
:101ED80003202EE1236813F0200F29D0A3699BB1BA
:101EE800954A136843F480531360FEF7B1FB054627
:101EF800914B1B6813F4005F1AD1FEF7A9FB401B36
:101F08000228F5D9032014E18B4A136823F480537F
:101F18001360FEF79DFB0546874B1B6813F4005FB3
:101F280006D0FEF795FB401B0228F5D9032000E1F7
:101F3800236813F0040F21D1636A002B00F0F880A6
:101F48007D4A126902F03802182A00F0F380022B49
:101F580075D0794A136823F080731360FEF778FB15
:101F68000446754B1B6813F0007F00F0DB80FEF71A
:101F78006FFB001B0228F4D90320DAE06F4A1368CC
:101F880043F480731360FEF763FB05466B4B1B68D5
:101F980013F4807F06D1FEF75BFB401B6428F5D95C
:101FA8000320C6E0A368012B0AD00BBB624B1A6F53
:101FB80022F001021A671A6F22F004021A6704E07D
:101FC8005D4A136F43F001031367A36833B3FEF749
:101FD8003FFB0546584B1B6F13F0020FACD1FEF7C1
:101FE80037FB401B41F288339842F3D90320A0E025
:101FF800052B09D0504B1A6F22F001021A671A6F8D
:1020080022F004021A67E0E74B4B1A6F42F0040211
:102018001A671A6F42F001021A67D6E7FEF718FB33
:102028000546454B1B6F13F0020F85D0FEF710FBDA
:10203800401B41F288339842F3D9032079E03E4AA5
:10204800136823F080731360FEF702FB05463A4BD2
:102058001B6813F0007F06D0FEF7FAFA401B02282F
:10206800F5D9032065E0344B996A354A0A40A16ADC
:10207800E06A41EA00110A439A62226B013AC2F30C
:102088000802616B0139490289B20A43A16B01391F
:10209800090401F4FE010A43E16B0139090601F064
:1020A800FE410A431A63596B264A0A40A06C4FF650
:1020B800F87191FAA1F1B1FA81F100FA01F10A433C
:1020C8005A63DA6A22F00C02216C0A43DA62DA6A8D
:1020D80022F00202616C0A43DA62DA6A42F4803260
:1020E800DA62DA6A42F40032DA62DA6A42F48022A8
:1020F800DA62DA6A42F00102DA621A6842F0807241
:102108001A60FEF7A5FA04460B4B1B6813F0007F14
:1021180006D1FEF79DFA001B0228F5D9032008E036
:10212800002006E0002004E0012002E0012000E099
:10213800002038BD0120FCE700440258004802583E
:102148000CFCFFFF0700FFFF6D4B1B6903F0380312
:10215800102B00F0D180182B0FD00BB169487047B5
:10216800674B1B6813F0200F00F0C880644B1B6896
:10217800C3F3C1036448D840704770B4604DAC6A7B
:1021880004F00304AE6AC6F30516EB6A03F0010314
:102198006D6BC5F3CC0503FB05F307EE903AF8EE3B
:1021A800677A012C60D0F4B1022C00F08980554B7D
:1021B800B3FBF6F307EE103AB8EE477A504B1B6BB9
:1021C800C3F30803DFED516A67EEA67A06EE903A8C
:1021D800F8EE666A76EEA77AF7EE006A77EEA67AE8
:1021E80027EE277A5BE0464B1B6813F0200F1FD0C1
:1021F800434A1368C3F3C1034348D840B0FBF6F31E
:1022080007EE103AB8EE477A136BC3F30803DFED15
:102218003F6A67EEA67A06EE903AF8EE666A76EEC0
:10222800A77AF7EE006A77EEA67A27EE277A36E0E5
:102238003548B0FBF6F307EE103AB8EE477A304B64
:102248001B6BC3F30803DFED316A67EEA67A06EE6F
:10225800903AF8EE666A76EEA77AF7EE006A77EEBD
:10226800A67A27EE277A1AE02649B1FBF6F307EE9D
:10227800103AB8EE477A224B1B6BC3F30803DFED25
:10228800236A67EEA67A06EE903AF8EE666A76EE6C
:10229800A77AF7EE006A77EEA67A27EE277A184B28
:1022A8001B6BC3F34623013307EE903AF8EE676AD7
:1022B800C7EE267AFCEEE77A17EE900A70BC7047F4
:1022C800134AB2FBF6F307EE103AB8EE477A0C4B16
:1022D8001B6BC3F30803DFED0D6A67EEA67A06EE03
:1022E800903AF8EE666A76EEA77AF7EE006A77EE2D
:1022F800A67A27EE277AD2E7054870470248704742
:102308000044025800093D000090D0030000003945
:102318000048E801774B1B6803F007038B420CD297
:10232800744A136823F007030B431360136803F020
:1023380007038B4201D00120704770B5036813F082
:10234800020F06D06C4A936923F00F03C468234335
:1023580093610D460446036813F0010F72D0664A74
:10236800936923F4706381680B4393614368022B7C
:102378000AD0032B2BD0012B30D05F4A126812F001
:10238800040F06D10120B2E0126812F4003F00F0F9
:10239800AF8059490A6922F0070213430B61FEF71F
:1023A80057F906466368022B1FD0032B2CD0012B4C
:1023B80039D0514B1B6913F0380F43D0FEF748F959
:1023C800801B41F288339842F3D903208FE04A4AB0
:1023D800126812F0007FDCD1012088E0464A1268BA
:1023E80012F4807FD5D1012081E0434B1B6903F0B3
:1023F8003803102B26D0FEF72BF9801B41F28833C7
:102408009842F2D9032072E03B4B1B6903F0380372
:10241800182B17D0FEF71CF9801B41F2883398421D
:10242800F2D9032063E0344B1B6903F03803082B0F
:1024380008D0FEF70DF9801B41F288339842F2D993
:10244800032054E02B4B1B6803F00703AB420CD965
:10245800284A136823F007032B431360136803F01B
:102468000703AB4201D0012041E0236813F0040FB9
:1024780006D0214A936923F0700321690B439361C5
:10248800236813F0080F06D01B4AD36923F07003A2
:1024980061690B43D361236813F0100F06D0164A05
:1024A800D36923F4E063A1690B43D361236813F074
:1024B800200F06D0104A136A23F07003E1690B431A
:1024C8001362FFF741FE0C4B9B6903F470634FF4F2
:1024D800807292FAA2F2B2FA82F2D340074AD35C2F
:1024E800D840074B18600020FEF772F8002070BD36
:1024F8000120FCE7002000520044025888760008BA
:102508008800002008B500F0A1FF084B9B6903F084
:102518000F03012292FAA2F2B2FA82F2D340044ADD
:10252800D35CD840034B186008BD00BF0044025874
:10253800887600088C00002008B5FFF7E3FF074BFA
:10254800DB6903F07003102292FAA2F2B2FA82F267
:10255800D340034AD35CD84008BD00BF00440258AA
:102568008876000808B5FFF7CDFF074BDB6903F451
:10257800E0634FF4807292FAA2F2B2FA82F2D34088
:10258800024AD35CD84008BD004402588876000847
:10259800384B9B6A03F00303032B69D070B50E46D2
:1025A8000446344A136823F080631360FEF750F83A
:1025B8000546304B1B6813F0006F06D0FEF748F84D
:1025C800401B0228F5D9032070BD2A4A936A23F4D8
:1025D8007C33216843EA013393626368013BC3F3A8
:1025E8000803A1680139490289B20B43E16801393E
:1025F800090401F4FE010B4321690139090601F0C0
:10260800FE410B439363D36A23F0C00361690B4314
:10261800D362D36A23F02003A1690B43D362BEB906
:10262800D36A43F40023D362124A136843F08063E9
:102638001360FEF70DF804460E4B1B6813F0006F8D
:1026480014D1FEF705F8001B0228F5D90320BBE7D3
:10265800012E05D0074AD36A43F40013D362E3E797
:10266800044AD36A43F48013D362DDE70020ABE762
:102678000120704700440258384B9B6A03F003035B
:10268800032B69D070B50E460446344A136823F00C
:1026980080531360FDF7DCFF0546304B1B6813F0D1
:1026A800005F06D0FDF7D4FF401B0228F5D90320B0
:1026B80070BD2A4A936A23F07C73216843EA015368
:1026C80093626368013BC3F30803A16801394902B7
:1026D80089B20B43E1680139090401F4FE010B4397
:1026E80021690139090601F0FE410B431364D36ADD
:1026F80023F4406361690B43D362D36A23F4007304
:10270800A1690B43D362BEB9D36A43F48003D36291
:10271800124A136843F080531360FDF799FF04468B
:102728000E4B1B6813F0005F14D1FDF791FF001BDF
:102738000228F5D90320BBE7012E05D0074AD36A42
:1027480043F08073D362E3E7044AD36A43F4000397
:10275800D362DDE70020ABE7012070470044025850
:10276800F8B50446036813F0006F2BD0436EB3F539
:10277800801F18D007D9B3F5001F1DD0B3F5401F2F
:102788002ED1002606E05BBBA14AD36A43F400338E
:10279800D36200269E4A136D23F44013616E0B43E7
:1027A8001365002510E002210430FFF7F1FE06460C
:1027B800002EEFD0354607E002212430FFF75CFFFA
:1027C8000646F5E700252E46236813F4807F28D0B7
:1027D800636D042B22D8DFE803F006141A0B0B00F4
:1027E80001252E46F0E78A4AD36A43F40033D362C0
:1027F800AEB9874A136D23F00703616D0B43136568
:102808000FE00021201DFFF7C3FE0646F0E7002178
:1028180004F12400FFF730FF0646E9E701263543B7
:10282800EDB2236813F4007F14D0A36D802B35D04C
:1028380008D823B3402B0AD10021201DFFF7A8FE9A
:10284800064621E0C02B1FD0B3F5807F1CD001269F
:102858003543EDB2236813F4806F2FD0D4F8A43039
:10286800B3F5800F4FD020D8002B3CD0B3F5001F14
:1028780021D10021201DFFF78BFE064638E0644A6F
:10288800D36A43F40033D362002EE1D1604A136D5A
:1028980023F4E073A16D0B431365DBE7002104F11A
:1028A8002400FFF7E9FE0646EEE7B3F5C00F1FD098
:1028B800B3F5000F1CD001263543EDB2236813F49D
:1028C800006F30D0D4F8A830B3F1007F48D021D8B9
:1028D800002B35D0B3F1807F22D10021201DFFF7D6
:1028E80057FE064631E04A4AD36A43F40033D362BE
:1028F800002EE1D1464A936D23F46003D4F8A41066
:102908000B439365DAE7002104F12400FFF7B4FED6
:102918000646EDE7B3F1407F17D0B3F1806F14D0CE
:1029280001263543EDB2236813F0007F23D0A36C52
:10293800102B34D01BD9202B40D0302B34D017E0AB
:10294800334AD36A43F40033D362002EE9D1304AC4
:10295800936D23F0E063D4F8A8100B439365E2E786
:10296800002104F12400FFF787FE0646EDE7DBB1FE
:1029780001263543EDB2236813F4805F2DD0E36D53
:10298800B3F5005F55D01FD8002B43D0B3F5805F57
:1029980020D10021201DFFF7FBFD06463FE01C4A21
:1029A800D36A43F40033D362002EE2D1184AD36CC1
:1029B80023F03003A16C0B43D364DCE70221201D14
:1029C800FFF7E6FD0646EFE7B3F5405F27D0B3F51E
:1029D800804F24D001263543EDB2236813F4005FFD
:1029E8003AD0236EB3F5003F53D029D83BB1B3F5A5
:1029F800803F2ED10121201DFFF7CAFD06464EBBA0
:102A0800034A136D23F4E023216E0B43136523E07F
:102A180000440258944AD36A43F40033D362002E28
:102A2800D9D1914A136D23F4E043E16D0B4313654B
:102A3800D3E7002104F12400FFF71EFE0646EEE767
:102A4800B3F5802FDBD0B3F5A02FD8D0B3F5403F36
:102A5800D5D001263543EDB2236813F4804F2BD02F
:102A6800D4F8AC30B3F1005F40D019D83BB1B3F122
:102A7800805F1ED10121201DFFF78AFD0646CEB9D1
:102A8800794A936D23F0E043D4F8AC100B43936577
:102A980012E0012104F12400FFF7EEFD0646AEE73F
:102AA800B3F1804FEBD0B3F1A04FE8D0B3F1405F62
:102AB800E5D001263543EDB2236813F4004F0AD060
:102AC800E36EB3F1805F18D0B3F1005F24D0CBB1CF
:102AD80001263543EDB2236813F0807F39D0636C4B
:102AE800032B33D8DFE803F0231E2C23012104F144
:102AF8002400FFF7C1FD0646C1E75B4AD36A43F4E9
:102B08000033D362002EE4D1574A136D23F04053AB
:102B1800E16E0B431365DEE70121201DFFF738FD49
:102B28000646EFE7504AD36A43F40033D36276B9D6
:102B38004D4AD36C23F00303616C0B43D36408E064
:102B48000221201DFFF724FD0646F0E70126354344
:102B5800EDB2236813F4800F1FD1236813F0010F1F
:102B680000F0A080A36F282B00F29980DFE803F023
:102B78008797979797979797829797979797979702
:102B880090979797979797978797979797979797E4
:102B980087979797979797978700344A136843F4CE
:102BA80080731360FDF754FD0746304B1B6813F420
:102BB800807F05D1FDF74CFDC01B6428F5D903269D
:102BC800002E4DD1284B1B6FD4F8B020534013F47E
:102BD800407F0CD0244B1A6F22F44072196F41F4D5
:102BE80080311967196F21F4803119671A67D4F891
:102BF800B030B3F5807F15D07EBBD4F8B03003F485
:102C08004072B2F5407F1ED0174A136923F47C53F3
:102C1800136115490B6FD4F8B020C2F30B021343AC
:102C28000B679AE7FDF714FD07460F4B1B6F13F070
:102C3800020FE1D1FDF70CFDC01B41F28833984229
:102C4800F3D90326D8E70848026922F47C520849D8
:102C580001EA131313430361DBE73543EDB27CE765
:102C68003543EDB279E700BF0044025800480258E6
:102C7800CFFFFF000121201DFFF78AFC06467EB921
:102C8800AC4A536D23F03803A16F0B43536509E039
:102C9800012104F12400FFF7EFFC0646EFE70126C7
:102CA8003543EDB2236813F0020F1FD0636F052B75
:102CB80019D8DFE803F00803110808080121201DCE
:102CC800FFF766FC06467EB99A4A536D23F0070360
:102CD800616F0B43536509E0012104F12400FFF7FC
:102CE800CBFC0646EFE701263543EDB2236813F027
:102CF800040F21D0D4F89030052B1AD8DFE803F060
:102D08000803120808080121201DFFF741FC0646A8
:102D180086B9884A936D23F00703D4F890100B43C3
:102D2800936509E0012104F12400FFF7A5FC06469C
:102D3800EEE701263543EDB2236813F0200F24D0C7
:102D4800D4F88C30B3F1005F3CD012D83BB1B3F16A
:102D5800805F17D10021201DFFF71AFC064696B99F
:102D6800744A536D23F0E043D4F88C100B43536539
:102D78000BE0B3F1804FF2D0B3F1A04FEFD0B3F135
:102D8800405FECD001263543EDB2236813F0400FC5
:102D98002BD0D4F89830B3F5006F44D019D83BB194
:102DA800B3F5806F1ED10021201DFFF7F1FB064609
:102DB800CEB9604A936D23F4E053D4F898100B43CE
:102DC800936512E0022104F12400FFF755FC064642
:102DD800C5E7B3F5805FEBD0B3F5A05FE8D0B3F5F6
:102DE800406FE5D001263543EDB2236813F0800F1C
:102DF8002CD0D4F89C30B3F5804F00F08B8019D8D4
:102E08003BB1B3F5005F1ED10021201DFFF7C0FBC9
:102E18000646CEB9474A936D23F46043D4F89C1014
:102E28000B43936512E0022104F12400FFF724FC10
:102E38000646BDE7B3F5004FEBD0B3F5204FE8D019
:102E4800B3F5C04FE5D001263543EDB2236813F042
:102E5800080F0AD0D4F88030B3F5805F61D03549C7
:102E68004A6D22F4405213434B65236813F0100F48
:102E78000AD0D4F89430B3F5807F5DD02D498A6D9F
:102E880022F4407213438B65236813F4002F0CD08F
:102E9800D4F8A030B3F5803F66D0B3F5003F58D0E2
:102EA800002B51D001263543EDB2236813F4802F4F
:102EB8000DD0D4F88430B3F5001F6CD0B3F5401FA3
:102EC8005ED0B3F5801F56D001263543EDB2236896
:102ED80013F4803F08D0E36C002B63D0B3F5803F38
:102EE8006FD001263543EDB2236813F0005F6ED131
:102EF800236813F4003F77D0E36FB3F5807F00F0C9
:102F0800AA806CD9B3F5007F00F0AA80B3F5407FA2
:102F180067D1A5E0022104F12400FFF7ADFB0646C6
:102F280077E7022104F12400FFF7A6FB0543EDB281
:102F38009BE700BF00440258022104F12400FFF778
:102F48009BFB0543EDB29FE70021201DFFF720FB07
:102F58000646002EA7D14B4A936D23F44033D4F88C
:102F6800A0100B439365A0E7022104F12400FFF7AA
:102F780083FB0646EDE7434AD36A43F40033D36242
:102F8800002EA2D13F4A536D23F44013D4F8841085
:102F98000B4353659BE7012104F12400FFF76CFB09
:102FA8000646EDE7374AD36A43F40033D362002E6E
:102FB80098D1344AD36C23F48033E16C0B43D36447
:102FC80092E70221201DFFF7E3FA0646EFE7022108
:102FD80004F12400FFF750FB0543EDB288E7002B0E
:102FE8003ED001263543EDB2236813F4801F06D086
:102FF800244A136D23F00043216F0B4313652368A4
:1030080013F0805F07D01F4A136923F48043D4F874
:10301800B4100B431361236813F4001F06D0194A38
:10302800136D23F08073A16E0B431365236813F0AF
:10303800804F09D0134B1A6922F400421A611A69A9
:10304800D4F8B8100A431A612368002B12DB05B1C3
:1030580001252846F8BD0B4AD36A43F40033D362EE
:10306800002EBFD1074A536D23F44073E16F0B4321
:103078005365B9E7034AD36C23F04053216D0B43E2
:10308800D364E4E70044025808B5FFF73BFA074B5E
:103098001B6A03F07003102292FAA2F2B2FA82F2CB
:1030A800D340034AD35CD84008BD00BF004402584F
:1030B80088760008F0B46D4CA76A07F00307A16A88
:1030C800C1F3053CE66A06F01006E36BC3F3CC03D4
:1030D80006FB03F607EE906AB8EE677A012F60D018
:1030E800F7B1022F00F0A580614BB3FBFCF307EEAC
:1030F800903AF8EE677A5D4B9B6BC3F30803DFEDFC
:103108005D6A27EE267A06EE903AF8EE666A36EEA3
:10311800877AF7EE006A37EE267A67EE877A5BE001
:10312800524B1B6813F0200F1FD0504A1368C3F38B
:10313800C103514DDD40B5FBFCF307EE903AF8EEC4
:10314800677A936BC3F30803DFED4A6A27EE267AA2
:1031580006EE903AF8EE666A36EE877AF7EE006A7F
:1031680037EE267A67EE877A36E0434CB4FBFCF3F9
:1031780007EE903AF8EE677A3C4B9B6BC3F3080373
:10318800DFED3C6A27EE267A06EE903AF8EE666A9C
:1031980036EE877AF7EE006A37EE267A67EE877A98
:1031A8001AE03349B1FBFCF307EE903AF8EE677A80
:1031B8002E4B9B6BC3F30803DFED2E6A27EE267AAE
:1031C80006EE903AF8EE666A36EE877AF7EE006A0F
:1031D80037EE267A67EE877A244A936BC3F3462341
:1031E800013307EE103AB8EE477AC7EE876AFCEE6D
:1031F800E66AC0ED006A936BC3F30643013307EE3A
:10320800103AB8EE477AC7EE876AFCEEE66AC0ED78
:10321800016A936BC3F30663013307EE103AB8EE05
:10322800477AC7EE876AFCEEE66AC0ED026AF0BC30
:103238007047124AB2FBFCF307EE903AF8EE677A51
:103248000A4B9B6BC3F30803DFED0A6A27EE267A65
:1032580006EE903AF8EE666A36EE877AF7EE006A7E
:1032680037EE267A67EE877AB6E700BF0044025841
:1032780000093D00000000390090D0030048E80133
:10328800F0B46D4CA76A07F00307A16AC1F3055CA7
:10329800E66A06F48076636CC3F3CC0306FB03F698
:1032A80007EE906AB8EE677A012F60D0F7B1022F67
:1032B80000F0A580614BB3FBFCF307EE903AF8EE03
:1032C800677A5D4B1B6CC3F30803DFED5D6A27EE7D
:1032D800267A06EE903AF8EE666A36EE877AF7EEC8
:1032E800006A37EE267A67EE877A5BE0524B1B68F6
:1032F80013F0200F1FD0504A1368C3F3C103514D78
:10330800DD40B5FBFCF307EE903AF8EE677A136CF4
:10331800C3F30803DFED4A6A27EE267A06EE903AF1
:10332800F8EE666A36EE877AF7EE006A37EE267AA6
:1033380067EE877A36E0434CB4FBFCF307EE903A2D
:10334800F8EE677A3C4B1B6CC3F30803DFED3C6A6D
:1033580027EE267A06EE903AF8EE666A36EE877A17
:10336800F7EE006A37EE267A67EE877A1AE0334975
:10337800B1FBFCF307EE903AF8EE677A2E4B1B6C24
:10338800C3F30803DFED2E6A27EE267A06EE903A9D
:10339800F8EE666A36EE877AF7EE006A37EE267A36
:1033A80067EE877A244A136CC3F34623013307EE8A
:1033B800103AB8EE477AC7EE876AFCEEE66AC0EDC7
:1033C800006A136CC3F30643013307EE103AB8EEF4
:1033D800477AC7EE876AFCEEE66AC0ED016A136CAD
:1033E800C3F30663013307EE103AB8EE477AC7EE27
:1033F800876AFCEEE66AC0ED026AF0BC7047124AC2
:10340800B2FBFCF307EE903AF8EE677A0A4B1B6CB6
:10341800C3F30803DFED0A6A27EE267A06EE903A30
:10342800F8EE666A36EE877AF7EE006A37EE267AA5
:1034380067EE877AB6E700BF0044025800093D00EE
:10344800000000390090D0030048E80108B5FEF7F5
:103458007BFE084B9B6903F470634FF4807292FA09
:10346800A2F2B2FA82F2D340034AD35CD840034BAB
:10347800186008BD004402588876000888000020BB
:1034880010B402685369916941F0080191610168BB
:103498008A6942F010028A6101680A6822F0010212
:1034A8000A6001680C69294A22400A6101688A6831
:1034B80022F440428A6090F88120D2B2042A0DD0CA
:1034C80013F0200F0AD0D0F8842042F08002C0F810
:1034D800842001688A6942F020028A6190F881207C
:1034E800D2B2032A0DD013F0400F0AD0D0F88420AE
:1034F80042F00402C0F8842001688A6942F0400260
:103508008A6113F4007F0AD0D0F8842042F00102C7
:10351800C0F8842001688A6942F400728A6113F451
:10352800807F0AD0D0F8843043F00803C0F8843094
:103538000268936943F4807393610023A0F86230B2
:10354800A0F86A305DF8044B704700BF94FCFFFF99
:10355800C36B5B09C0680830C00803FB00007047F4
:103568002DE9F04107460E4615469846069C3B68ED
:103578005B6936EA03030CBF01230023AB420BD17E
:10358800B4F1FF3FF3D054B1FDF762F8A0EB0800A7
:10359800A042ECD9032000E00020BDE8F081032020
:1035A800FBE70000002800F0978070B50446002370
:1035B800836205684C4B4D4E9D4218BFB54214BFFF
:1035C8000126002607D0A3F574439D4203D0C368A3
:1035D8000F2B00F283802046FFF7BAFF26B1444B39
:1035E8009D4201D008287BD83F4A404B9D4218BFD6
:1035F800954203D003F580639D4201D1102871D80C
:1036080094F88130002B54D0022384F8813022684A
:10361800136823F001031360A369B3F1806F4ED0E0
:10362800E369A26A1343E26B1343E16822680B4320
:103638009360636B626A1343A26B1343A2691343DB
:103648002269134362691343226A1343626813436E
:10365800E26C1343A2681343A26C1343A16D226862
:103668000B43D36063686BB92268936823F4C05333
:1036780043F4006393602268936823F4C06343F4BF
:10368800806393602268136D23F0010313656368F8
:1036980013F4800F06D02268D36823F00043616DCD
:1036A8000B43D3600020C4F88400012384F88130E0
:1036B80070BD84F88030204603F086F8A4E763687C
:1036C800B3F5800FACD1A36B002BA9D12268136886
:1036D80043F480531360A3E7012070470120E7E714
:1036E8000120E5E70120E3E7003001400038004011
:1036F800003C00402DE9F04383B00A9D90F88040DB
:10370800012C00F0D3811F469146884604460123C8
:1037180080F88030FCF79CFF064694F88130DBB2D5
:10372800012B0BD06368B3F5800F37D1A368002B4A
:1037380034D194F88130DBB2042B2FD194F8813046
:10374800DBB2042B02D0052384F881300023C4F8AF
:103758008430C4F86490A4F86A70A4F86870C4F857
:103768005C80A4F86270A4F86070236763672268BD
:103778005168A3F580330B401F43576022681368D4
:1037880043F0010313606368B3F5800F0DD0E3685D
:103798000F2B13D8072B00F285800BE1002384F848
:1037A8008030022003B0BDE8F0832268136843F438
:1037B80000731360EBE7B5F1FF3F36D1B4F8623020
:1037C8009BB22BB9B4F86A309BB2002B00F0508141
:1037D800B4F862309BB283B123685A6912F0020FC1
:1037E8000BD0E26D12681A62E36D0433E365B4F836
:1037F8006230013B9BB2A4F86230B4F86A309BB2E5
:10380800002BD8D02368596948F208021142D2D057
:10381800626E1B6B1360636E04336366B4F86A30C0
:10382800013B9BB2A4F86A30C5E7FCF711FF801B87
:10383800A842C3D32046FFF723FE002384F8803034
:10384800D4F8843043F48073C4F88430012084F8B9
:103858008100A7E7E26D12881A84E36D0233E365FD
:10386800B4F86230013B9BB2A4F86230B4F86A3015
:103878009BB2A3B123685A6912F4604F0FD05A69FA
:1038880012F4004F37D0626E1B6B1360636E043303
:103898006366B4F86A30023B9BB2A4F86A30B5F1AB
:1038A800FF3F35D1B4F862309BB22BB9B4F86A3017
:1038B8009BB2002B00F0DC80B4F862309BB2002B86
:1038C800D4D023685A6912F0020FCFD0B4F862201E
:1038D80092B2012ABED9E26B002ABBD0E26D12680F
:1038E8001A62E36D0433E365B4F86230023B9BB2BD
:1038F800A4F86230BAE7626E1B8E1380636E0233DF
:103908006366B4F86A30013B9BB2A4F86A30C6E734
:10391800FCF79EFE801BA842C4D32046FFF7B0FDEB
:10392800002384F88030D4F8843043F48073C4F8DA
:103938008430012084F8810034E7B4F8622092B220
:10394800012A0ED9E26B62B1E26D12881A84E36D26
:103958000233E365B4F86230023B9BB2A4F86230EC
:103968000CE0E26D127883F82020E36D0133E36503
:10397800B4F86230013B9BB2A4F86230B4F86A3004
:103988009BB2A3B123685A6912F4604F0FD05A69E9
:1039980012F4004F36D0626E1B6B1360636E0433F3
:1039A8006366B4F86A30043B9BB2A4F86A30B5F198
:1039B800FF3F48D1B4F862309BB223B9B4F86A30FB
:1039C8009BB2002B54D0B4F862309BB2002BD5D0F8
:1039D80023685A6912F0020FD0D0B4F8622092B26C
:1039E800032AAAD9E26B402AA7D9E26D12681A62A3
:1039F800E36D0433E365B4F86230043B9BB2A4F88A
:103A08006230BBE75A6902F4C042B2F5005F0CD9D4
:103A1800626E1B8E1380636E02336366B4F86A307D
:103A2800023B9BB2A4F86A30C1E7626E93F830306B
:103A38001370636E01336366B4F86A30013B9BB25E
:103A4800A4F86A30B3E7FCF703FE801BA842B1D3A1
:103A58002046FFF715FD002384F88030D4F8843021
:103A680043F48073C4F88430012084F8810099E617
:103A780000953346002208212046FFF771FD28B142
:103A8800D4F8843043F02003C4F884302046FFF78C
:103A9800F7FC002384F88030012384F88130D4F8BF
:103AA80084300BB900207DE601207BE6022079E610
:103AB80070477047704770472DE9F843044603681C
:103AC8001E695F6906EA0705D3F8088090F8813017
:103AD8005FFA83F905F04103012B0BD1036F984777
:103AE800012205F02203022B06D1636F2046984776
:103AF800BDE8F8830022F4E7002AF9D115F0080F91
:103B080072D02268936943F008039361226893692D
:103B180043F0100393612268936943F4006393614F
:103B28002268136923F00803136118F4404F0BD07F
:103B3800B9F1040F02D0A36FDB692BB1B9F1030F00
:103B480011D0E36FDB6973B923689B6813F4404FA6
:103B580025D02046FFF794FC012384F88130D4F85F
:103B68008430002B34D1B9F1050F35D0B9F1040FE9
:103B780036D0B9F1030FBBD12046FFF799FFB7E75D
:103B8800072B1CD92268636E128E1A80636E02336B
:103B98006366B4F86A30013B9BB2A4F86A30B4F8A3
:103BA8006A309BB2002BD4D0E3680F2BE8D9226887
:103BB800636E126B1A60636E04336366E9E722680A
:103BC800636E92F830201A70636E01336366E0E723
:103BD8002046FFF770FF8BE72046FFF76BFF87E76C
:103BE8002046FFF766FF83E716F0080F02D017F4A8
:103BF800006F63D115F4587F3FF47AAF15F0400F8A
:103C08000AD0D4F8843043F00403C4F8843022681E
:103C1800936943F04003936115F4007F0AD0D4F808
:103C2800843043F00103C4F884302268936943F474
:103C38000073936115F4807F0AD0D4F8843043F080
:103C48000803C4F884302268936943F4807393614D
:103C580015F0200F0AD0D4F8843043F08003C4F85C
:103C680084302268936943F020039361D4F8843048
:103C7800002B3FF43DAF2268136823F00103136063
:103C880022681169144B0B40136118F4404F1BD084
:103C98002268936823F440439360E36F23B10F4A8B
:103CA8001A65E06FFCF70AFFA36F002B3FF420AF03
:103CB8000A4A1A65A06FFCF701FF19E722689369A1
:103CC80043F40063936113E7012384F881302046AD
:103CD800FFF7F1FE0CE700BF94FCFFFFE93C00088A
:103CE80008B5806B0023A0F86A30A0F86230012381
:103CF80080F88130FFF7DFFE08BD10B4036A046A5C
:103D080024F001040462846924F0F00444EA0212F5
:103D180023F00A030B43826103625DF8044B70478A
:103D280010B4036A23F0100303628469036A24F45D
:103D3800704444EA023223F0A00343EA011382618B
:103D480003625DF8044B70478268034B134041F0EF
:103D580007011943816070478FFFCFFF70B4038854
:103D68009BB2384CA04214BF00240124B0F1804F0C
:103D780014BF224644F00102AAB9334DA84214BF29
:103D880000250125314EB0420DD065B905F18045B9
:103D980005F58235A84214BF0025012506F5006601
:103DA800B04200D01DB123F070034D682B4312BB05
:103DB800254A904214BF00220122244DA8421AD05D
:103DC800CAB902F1804202F58232904214BF002241
:103DD800012205F50065A8420DD062B91C4A90423F
:103DE80014BF0022012205F59A35A84203D012B962
:103DF800184A904203D123F44073CA68134323F04E
:103E080080034A6913439BB203808A68C2620A88A6
:103E18000285114B984214BF234644F001035BB955
:103E28000B4B984214BF002301230C4A904203D045
:103E380013B9084B984201D10B8A038601234361C9
:103E480070BC7047000001400008004000040040BA
:103E58000044014000480140000401400040014086
:103E6800A8B110B5044690F83D305BB1022384F840
:103E78003D30211D2068FFF771FF012384F83D3094
:103E8800002010BD80F83C3002F06EFFEEE7012004
:103E9800704710B4846824F47F4442EA03230B4338
:103EA800234383605DF8044B7047000090F83C3072
:103EB800012B7DD010B50446012380F83C30022345
:103EC80080F83D30026890683A4B034093600B6875
:103ED800402B59D010D9702B3ED01FD8502B49D029
:103EE800602B32D1CA6849682068FFF719FF602142
:103EF8002068FFF729FF28E0102B4FD008D9202B86
:103F080051D0302B21D130212068FFF71DFF1CE054
:103F1800DBB900212068FFF717FF16E0B3F5805FD3
:103F28000ED0B3F5005F10D1CB684A688968206865
:103F3800FFF7AFFF2268936843F48043936004E07F
:103F4800226891681C4B0B409360012384F83D3034
:103F5800002084F83C0010BDCB684A688968206856
:103F6800FFF797FF22689168144B0B4043F07703E3
:103F78009360EAE7CA6849682068FFF7BEFE5021E7
:103F88002068FFF7E1FEE0E7CA6849682068FFF7A4
:103F9800B4FE40212068FFF7D7FED6E7102120683D
:103FA800FFF7D2FED1E720212068FFF7CDFECCE74E
:103FB800022070478800CEFFF8FFFEFF88FFCEFF83
:103FC80090F83C30012B21D070B4012380F83C30AC
:103FD80003685A689D680E4E0E4CA34218BFB34240
:103FE80003D122F470024C68224322F070020C685C
:103FF800224325F08004896821435A600368996048
:10400800002380F83C30184670BC70470220704787
:1040180000000140000401402DE9F04387B0044648
:104028000168826A83680069034360690343E06941
:10403800034313430868874A02401A430A60226808
:10404800536823F44053E1680B435360A269216825
:10405800814B994201D0236A1A43A36AB3F1005FE6
:104068002FD088687D4B034013438B602268D36A46
:1040780023F00F03616A0B43D3622368784A9342A3
:1040880024D0784A93425ED0774A934275D0774AD3
:10409800934200F08C80764A934200F0A280754AE1
:1040A800934200F0B880744A934200F0F580734A56
:1040B800934200F00881684A934200F01B818025F2
:1040C80031E1E36A206B03431A43CAE76C4A526D35
:1040D80002F03802282A2AD8DFE812F02401290041
:1040E8002900290029002900290029002B0029007E
:1040F8002900290029002900290029002D0029006C
:104108002900290029002900290029002F00290059
:104118002900290029002900290029003100290047
:1041280029002900290029002900290033008025B9
:10413800F9E00425F7E04025F5E00825F3E010252F
:10414800F1E02025EFE04E4A526D02F00702052A01
:1041580007D8DFE812F0360108000A000C000E004C
:1041680010008025DFE00425DDE04025DBE00825A0
:10417800D9E01025D7E02025D5E0414A526D02F05C
:104188000702052A07D8DFE812F01E0108000A0016
:104198000C000E0010008025C5E00425C3E0402572
:1041A800C1E00825BFE01025BDE02025BBE0344A6A
:1041B800526D02F00702052A07D8DFE812F006015F
:1041C80008000A000C000E0010008025ABE0042552
:1041D800A9E04025A7E00825A5E01025A3E02025B3
:1041E800A1E0274A526D02F00702052A07D8DFE846
:1041F80012F0EE0008000A000C000E0010008025E6
:1042080091E004258FE040258DE008258BE01025FE
:1042180089E0202587E01A4A526D02F03802282AE0
:1042280016D8DFE802F0D6151515151515152F1532
:1042380015151515151531151515151515153315EC
:1042480015151515151535151515151515153700E9
:10425800802568E0F369FFCF000C0058FFF4FF11D8
:10426800001001400044004000480040004C00405D
:10427800005000400014014000780040007C0040DD
:104288000044025804254EE040254CE008254AE049
:10429800102548E0202546E09B4A526D02F00702AF
:1042A800052A04D8DFE802F0970507090B0D8025D9
:1042B80039E0042537E0402535E0082533E01025AE
:1042C80031E020252FE0904A526D02F00702052ABE
:1042D80004D8DFE802F0820507090B0D802522E0EB
:1042E800042520E040251EE008251CE010251AE0E2
:1042F800202518E002F50E32926D02F00702052A19
:1043080004D8DFE802F06C0507090B0D80250AE0E8
:10431800042508E0402506E0082504E0102502E011
:10432800202500E00125794A93425AD0E269B2F586
:10433800004F00F09181402D00F2FB82DFE815F07C
:104348005A026C02F902F9027E02F902F902F90234
:10435800A602F902F902F902F902F902F902F902D0
:10436800D002F902F902F902F902F902F902F90296
:10437800F902F902F902F902F902F902F902F9025D
:10438800E002F902F902F902F902F902F902F90266
:10439800F902F902F902F902F902F902F902F9023D
:1043A800F902F902F902F902F902F902F902F9022D
:1043B800F902F902F902F902F902F902F902F9021D
:1043C80092020025AFE70025ADE70025ABE7002501
:1043D800A9E70125A7E70025A5E70025A3E702250A
:1043E800A1E7082D36D007D9202D3FD0402D2CD05D
:1043F800102D0AD001206CE1022D08D0042DF9D12E
:1044080003A8FEF757FE049B04E0414B05E0FEF7C6
:104418003BFE0346002B00F08482666806EB4602EA
:104428009A4200F28082B3EB063F00F27E82082DAA
:1044380000F095801FD9202D00F0F580402D6FD019
:10444800102D00F0D280012054E06846FEF718FFD6
:10445800019BDFE72C4B1B6813F0200F09D02A4B78
:104468001868C0F3C1002B4BC340D3E74FF4004397
:10447800D3E7284BD1E7022D20D0042DE3D103A8A0
:10448800FEF718FE0025626A234B33F8122000233A
:1044980004982946FBF71CFF0F0247EA106706023B
:1044A800626850082B4616EB000847F100094046A1
:1044B8004946FBF70DFF034628461BE0FEF7E4FDDF
:1044C8000025626A144B33F8122000232946FBF7B3
:1044D800FFFE0F0247EA10670602626850082B4683
:1044E80016EB000847F1000940464946FBF7F0FE85
:1044F80003462846A3F54071084A914200F2178204
:104508002268D360E5E000BF00440258000C005860
:1045180000093D000090D00370760008FFFC0F00F2
:104528006846FEF7ADFE0025626AA44B33F81220F8
:10453800002301982946FBF7CBFE0F0247EA1067D4
:104548000602626850082B4616EB000847F100097E
:1045580040464946FBF7BCFE03462846CAE7984B47
:104568001B6813F0200F22D0954B1968C1F3C101C5
:104578000025626A914B33F8122000239148C84005
:104588002946FBF7A5FE4FEA012949EA10694FEAD7
:104598000028700832462B4618EB000649F1000740
:1045A80030463946FBF794FE03462846A2E7626A7E
:1045B800824B33F81220002382480021FBF788FE43
:1045C8004FEA012949EA10694FEA002870080025D6
:1045D80032462B4618EB000649F1000730463946AB
:1045E800FBF776FE0346284684E7626A734B33F886
:1045F8001220002374480021FBF76AFE4FEA0129C4
:1046080049EA10694FEA00287008002532462B460F
:1046180018EB000649F1000730463946FBF758FE0B
:104628000346284666E7626A644B33F812204FF463
:104638000043B3FBF2F34FF000094FEA0328770871
:10464800002532462B4618EB070049F10001FBF71D
:104658003FFE034628464DE7402D00F2C880DFE8BC
:1046680005F0213BC6C64CC6C6C672C6C6C6C6C677
:10467800C6C69CC6C6C6C6C6C6C6C6C6C6C6C6C6FC
:10468800C6C6B5C6C6C6C6C6C6C6C6C6C6C6C6C6D3
:10469800C6C6C6C6C6C6C6C6C6C6C6C6C6C6C6C6B2
:1046A800C6C65F00FDF748FF626A444B33F8122024
:1046B800B0FBF2F063685A0802EB4002B2FBF3F277
:1046C80092B2002022F00F03C2F342021A43236879
:1046D800DA6007B0BDE8F083FDF744FF626A374B44
:1046E80033F81220B0FBF2F063685A0802EB40027C
:1046F800B2FBF3F292B20020E4E703A8FEF7DAFC7B
:10470800626A2E4B33F81230049AB2FBF3F36168F5
:104718004A0802EB4302B2FBF1F292B20020D1E761
:104728006846FEF7ADFD626A244B33F81230019AF1
:10473800B2FBF3F361684A0802EB4302B2FBF1F201
:1047480092B20020BEE71E4B1B6813F0200F14D056
:104758001B4B1A68C2F3C1021A4BD340616A174A4D
:1047680032F81120B3FBF2F361684A0802EB430206
:10477800B2FBF1F292B20020A4E7626A0F4B33F861
:104788001220104BB3FBF2F361684A0802EB4302B4
:10479800B2FBF1F292B2002094E7626A074B33F859
:1047A8001230094AB2FBF3F361684A0802EB43028C
:1047B800B2FBF1F292B2002084E700BF70760008E5
:1047C800004402580090D00300093D00626A5A4B29
:1047D80033F812304FF40042B2FBF3F361684A0831
:1047E80002EB4302B2FBF1F292B200206AE7012029
:1047F800002267E7FDF7A0FE626A4F4B33F81230DC
:10480800B0FBF3F3626803EB5203B3FBF2F32268E5
:104818009BB2D36000205CE7FDF7A4FE626A464BBA
:1048280033F81230B0FBF3F3626803EB5203B3FBC7
:10483800F2F322689BB2D36000204AE703A8FEF790
:1048480039FC626A3C4B33F81220049BB3FBF2F349
:10485800626803EB5203B3FBF2F322689BB2D360A6
:10486800002036E76846FEF70BFD626A324B33F8E4
:104878001220019BB3FBF2F3626803EB5203B3FB14
:10488800F2F322689BB2D360002022E72B4A126819
:1048980012F0200F14D0294A1168C1F3C101284A27
:1048A800CA40606A244931F81010B2FBF1F261681D
:1048B80002EB5102B2FBF1F292B2DA60002008E793
:1048C800616A1D4A32F811101D4AB2FBF1F26168A3
:1048D80002EB5102B2FBF1F292B2DA600020F8E684
:1048E800616A154A32F81110164AB2FBF1F2616892
:1048F80002EB5102B2FBF1F292B2DA600020E8E674
:10490800616A0D4A32F811104FF40042B2FBF1F21D
:10491800616802EB5102B2FBF1F292B2DA60002058
:10492800D7E60020D5E60120D3E60120D1E6012014
:10493800CFE60120CDE600BF70760008004402589B
:104948000090D00300093D00436B13F0010F06D01F
:104958000268536823F40033816B0B435360436B45
:1049680013F0020F06D00268536823F48033C16B3A
:104978000B435360436B13F0040F06D0026853686F
:1049880023F48023016C0B435360436B13F0080F2F
:1049980006D00268536823F40043416C0B4353600C
:1049A800436B13F0100F06D00268936823F480530A
:1049B800816C0B439360436B13F0200F06D00268A1
:1049C800936823F40053C16C0B439360436B13F05B
:1049D800400F0AD00268536823F48013016D0B431B
:1049E8005360036DB3F5801F0BD0436B13F0800F3A
:1049F80006D00268536823F40023816D0B4353608B
:104A080070470268536823F4C003416D0B43536039
:104A1800EBE72DE9F04105460F4616469846069CF9
:104A28002B68DB6937EA03030CBF01230023B34279
:104A38001DD1B4F1FF3FF3D02CB1FBF709FEA0EB79
:104A48000800A042ECD92A68136823F4D0731360D5
:104A58002A68936823F001039360202385F879304E
:104A680085F87A30002385F87830032000E00020AC
:104A7800BDE8F08130B583B004460023C367FBF777
:104A8800E7FD054623681B6813F0080F0ED123685D
:104A98001B6813F0040F17D1202384F8793084F8A9
:104AA8007A30002084F8780003B030BD6FF07E4380
:104AB8000093034600224FF400112046FFF7A9FF98
:104AC8000028E4D00320EFE76FF07E4300932B46E5
:104AD80000224FF480012046FFF79BFF0028DBD01F
:104AE8000320E1E778B310B5044690F879300BB3AA
:104AF800242384F879302268136823F001031360B3
:104B08002046FFF789FA012813D0636BBBB92268E6
:104B1800536823F4904353602268936823F02A0370
:104B280093602268136843F0010313602046FFF77F
:104B3800A1FF10BD80F8783002F02EF9D8E72046A2
:104B4800FFF702FFE3E701207047000084B010B5CB
:104B5800044603A880E80E00089B012B1ED1A36B16
:104B680023F48033A363E268164B1340E360E368E1
:104B780023F44013E3600F9B012B0AD0204600F07A
:104B8800D1FC069B012B14D00020BDE8104004B0D6
:104B98007047E36843F48013E360EFE7E36843F0AA
:104BA8004003E360204600F0BDFC4FF48033A3636C
:104BB800E7E7A36843F00C03A360A36843F020036E
:104BC800A360E1E7BFFFBDFF836843F00103836093
:104BD80000207047836823F001038360002070473A
:104BE80008B5C36823F0C043C360012909D019B9C7
:104BF800C36843F08043C3603220FBF72FFD0020D9
:104C080008BDC36843F00053C360F5E784B0F8B546
:104C1800044607A880E80E00A36B43F40013A363BF
:104C2800119F5FB9A36B23F40013A363236843F0B8
:104C380040032360236843F0800323602546002354
:104C4800C4F8003E04F50066D4F80038C4F800380B
:104C58000C9B012B0BD1099B23B90021204600F0A6
:104C6800A9F808E00121204600F0A4F803E0032198
:104C7800204600F09FF81021204600F075F82046E5
:104C880000F086F80023336173614FF0FF32B261A0
:104C9800F36108E04FF09040C2F8000900220A6171
:104CA800FF228A600133079999420BD905EB431219
:104CB80002F51061D2F800090028EBDB0020C2F8E9
:104CC8000009EBE7002308E04FF0904CC2F800CB56
:104CD80000220261FF228260013399420DD905EB5F
:104CE800431202F53060D2F800CBBCF1000FEBDBC9
:104CF8004FF0000CC2F800CBEAE7336923F4807365
:104D080033610A9B012B1AD00022A2616FF0804206
:104D180062611BB9A36943F01003A361A2690E4B3A
:104D28001343A3610D9B1BB1A36943F00803A3615F
:104D3800012F0CD00020BDE8F84004B07047074AA6
:104D48003263316B064A0A433263326BDCE7A2698D
:104D5800044B1343A361EDE700383C8000040002D4
:104D68000300010804000040890141F020010161AD
:104D780000230133054A934205D8026912F0200F37
:104D8800F7D1002070470320704700BF400D030093
:104D98001023036100230133054A934205D80269B1
:104DA80012F0100FF7D1002070470320704700BFA2
:104DB800400D0300D0F800381943C0F8001800204F
:104DC8007047D0F8083800F5006013F0060F10D0CF
:104DD800836803F00603022B0DD0836803F00603F3
:104DE800062B0AD0836803F00603042B07D00020A3
:104DF8007047002070470320704703207047022047
:104E08007047000030B44B78012B20D0D0F81C3804
:104E18000D780122AA4043EA0243C0F81C380B78F7
:104E280000EB4310D0F8003B13F4004F0CD1D0F83E
:104E3800002B8B68C3F30A03C97843EA8143134301
:104E4800134A1A43C0F8002B002030BC7047D0F832
:104E58001C280D78AB409BB21343C0F81C380A7865
:104E680000EB4210D0F8003913F4004FECD1D0F821
:104E780000498B68C3F30A03C97843EA814343EACC
:104E880082532343024A1A43C0F80029DCE700BFD3
:104E98000080001030B44B78012B1DD0D0F83C486E
:104EA8000D78012202FA05F524EA0544C0F83C48C9
:104EB800D0F81C480D78AA4024EA0242C0F81C2801
:104EC8000B7800EB4310D0F8003B23F40043C0F804
:104ED800003B002030BC7047D0F83C580A7803FAF1
:104EE80002F292B225EA0202C0F83C28D0F81C2847
:104EF8000D78AB409BB222EA0303C0F81C380B784C
:104F080000EB4310D0F8003923F40043C0F800390F
:104F1800DFE7000070B582B04B78012B3CD00B78EE
:104F280000EB4313D3F8105B8F4C2C40C3F8104BA5
:104F38000B7800EB4313D3F8105B8C4C2C40C3F870
:104F4800104B4B69002B40F0D0800B7800EB4313DB
:104F5800D3F8104B8D68C5F312052C43C3F8104BDA
:104F68000B7800EB4313D3F8104B44F40024C3F838
:104F7800104B012A00F0D880CB78012B00F0DB80A1
:104F88000B7800EB4310D0F8003B43F00443C0F823
:104F9800003B002002B070BD4B695BBB0B7800EB97
:104FA8004313D3F81059714C2C40C3F810490B78AF
:104FB80000EB4313D3F8104944F40024C3F8104914
:104FC8000B7800EB4313D3F81059674C2C40C3F807
:104FD8001049012A52D0CB78012B55D04B69002BB0
:104FE80052D0D0F834380E780124B4402343C0F8A6
:104FF800343849E00B7800EB4313D3F810595A4C76
:105008002C40C3F810490B7800EB4313D3F8105920
:10501800564C2C40C3F810490C7800EB4414D4F8D3
:1050280010594B698E683344013BB3FBF6F3504E7D
:1050380006EAC3432B43C4F810390B7800EB43133B
:10504800D3F810494D69C5F312052C43C3F810492C
:10505800CB78012BBDD10B7800EB4313D3F8104963
:1050680024F0C044C3F810490B7800EB4313D3F87D
:10507800104944F00054C3F81049AAE70B7800EB34
:1050880043130C69C3F81449CB78012B14D00B785F
:1050980000EB4313D3F8004944F00444C3F8004933
:1050A800CB78012B7FF475AF14468B8A0A78C968D0
:1050B800009400F00DF96CE7D0F8083813F4807FFD
:1050C80009D10B7800EB4313D3F8004944F000549E
:1050D800C3F80049DBE70B7800EB4313D3F800492A
:1050E80044F08054C3F80049D1E78C682344013B5D
:1050F800B3FBF4F30C7800EB4414D4F8105B1C4EAB
:1051080006EAC3463543C4F8105B0C7800EB441438
:10511800D4F8106B8D689BB205FB03F5C5F3120537
:105128003543C4F8105B24E7CA680B7800EB4313D7
:10513800C3F8142B20E7D0F8083813F4807F09D17E
:105148000B7800EB4313D3F8002B42F00052C3F85E
:10515800002B15E70B7800EB4313D3F8002B42F034
:105168008052C3F8002B0BE70000F8FFFFFF07E0B1
:105178000000F81F30B44B78012B37D00B7800EBC8
:105188004313D3F8105B504C2C40C3F8104B0B78EA
:1051980000EB4313D3F8105B4C4C2C40C3F8104B76
:1051A8004B690BB18B684B610B7800EB4313D3F859
:1051B800104B44F40024C3F8104B0B7800EB431356
:1051C800D3F8104B8D68C5F312052C43C3F8104B68
:1051D800012A71D00B7800EB4310D0F8003B43F064
:1051E8000443C0F8003B002030BC70474B6983BBC8
:1051F8000B7800EB4313D3F81059344C2C40C3F808
:1052080010490B7800EB4313D3F8104944F40024F9
:10521800C3F810490B7800EB4313D3F810592A4C04
:105228002C40C3F81049012A3FD04B693BB1D0F854
:1052380034380D780122AA401343C0F834380B786B
:1052480000EB4310D0F8003943F00443C0F80039AC
:10525800C9E70B7800EB4313D3F810591A4C2C40CC
:10526800C3F810490B7800EB4313D3F81059174CC7
:105278002C40C3F810494C698B689C4200D94B619B
:105288000B7800EB4313D3F8104944F40024C3F817
:1052980010490B7800EB4313D3F810494D69C5F357
:1052A80012052C43C3F81049BDE70B7800EB4313F4
:1052B8000A69C3F81429C2E7CA680B7800EB4313DC
:1052C800C3F8142B86E700BF0000F8FFFFFF07E0D4
:1052D80070B49DF80C4064B903339D1007E000EBEF
:1052E800023303F5805351F8046B1E600134AC425D
:1052F800F5D3002070BC704703329210002393420C
:105308000CD210B400F58054246841F8044B0133E2
:105318009342F7D308465DF8044B70470846704738
:105328004B78012B17D00B7800EB4313D3F8002BE5
:10533800002A05DBD3F8002B22F08042C3F8002BAB
:105348000B7800EB4310D0F8003B43F40013C0F88F
:10535800003B002070470B7800EB4313D3F800297B
:10536800002A05DBD3F8002922F08042C3F800297F
:105378000B7800EB4310D0F8003943F40013C0F861
:105388000039E6E74B78012B0FD00B7800EB43137D
:10539800D3F8002B22F40012C3F8002BCB78023B81
:1053A800DBB2012B19D9002070470B7800EB4313AF
:1053B800D3F8002922F40012C3F80029CB78023B65
:1053C800DBB2012BEFD80B7800EB4310D0F8003993
:1053D80043F08053C0F80039E5E70B7800EB431041
:1053E800D0F8003B43F08053C0F8003BDBE7D0F82F
:1053F800003823F4FE63C0F80038D0F800380901FB
:1054080001F4FE610B43C0F800380020704708B56E
:10541800D0F8043823F00203C0F804380320FBF75F
:105428001DF9002008BD08B5D0F8043843F0020380
:10543800C0F804380320FBF711F9002008BD4269C1
:10544800806910407047D0F8183800F50060C069CE
:105458001840000C7047D0F8183800F50060C06993
:10546800184080B2704700EB4111D1F8082B00F5C5
:10547800006040691040704710B4D0F81048D0F868
:105488003438CB40DB01DBB2234300EB411000F59D
:105498001060806818405DF8044B7047406900F060
:1054A80001007047D0F800290B4B1340C0F80039B1
:1054B80000F500639A6802F00602042A05D05A68CB
:1054C80042F480725A6000207047D0F8002942F0F8
:1054D8000302C0F80029F2E700F8FFFF10B4002427
:1054E800C0F8104BD0F8104B44F40024C0F8104B0F
:1054F800D0F8104B44F01804C0F8104BD0F8104BFB
:1055080044F0C044C0F8104B012903D000205DF8D6
:10551800044B7047C0F8142B4FF08023C0F8003BB1
:10552800F4E70000002301330C4A934211D80269C2
:10553800002AF8DA036943F0010303610023013309
:10554800064A934207D8026912F0010FF7D10020EA
:105558007047032070470320704700BF400D0300C9
:10556800292303800048704708000020D0F818322B
:10557800002083F85000704710B5D0F81842E36C4B
:10558800012B07D1D0F81C32DB6861782078984766
:105598000023E364002010BD0A23038000487047FD
:1055A8003400002038B50446D0F81852D0F81C3220
:1055B800DB6869782878984740232A4601212046E5
:1055C80001F0A2FE002038BD10B5D0F818420B78C3
:1055D80013F060032FD0202B5BD14B78023B092BB3
:1055E80025D8DFE803F0150924242424241C1005F9
:1055F8008B78236400204DE0012204F1400100F083
:1056080079FC002046E04B881B0A6364002041E0D7
:10561800012204F1440100F06DFC00203AE001236E
:10562800E3648A79214600F07AFC002032E000F039
:10563800FFF902202EE04B780A2B1FD00B2B24D029
:10564800062B01D0002025E04B881B0A222B07D00F
:10565800212B0DD000210A4600F04CFC002019E057
:10566800CA88FF2A28BFFF22D0F81C321968F3E73E
:10567800CA88092A28BF09220749EDE7012204F14F
:10568800480100F037FC002004E08B78A364002078
:1056980000E0002010BD00BF4000002010B5044607
:1056A800812101F0D4FD0121204601F0D0FDD4F87C
:1056B800183253B1D4F81C329B689847D4F81802B2
:1056C80001F0F2FE0023C4F81832002010BD70B5B6
:1056D800044640230322812101F0A8FD4023032230
:1056E8000121204601F0A2FD542001F0D5FEC4F8A6
:1056F800180278B10546002680F85060D4F81C32AC
:105708005B68984740232A460121204601F0FCFDAA
:10571800304670BD0120FCE738B5D0F8185290F833
:10572800FC41032C01D0002038BD95F85030002BE7
:10573800F9D113460A46012185F85010812101F05C
:10574800D5FDF0E719B1C0F81C12002070470220FF
:10575800704798B108B50346D0F8140210B100207C
:10576800C3F8140209B1C3F810121846012380F8CF
:10577800FC31027001F00CFD002008BD02207047CA
:1057880019B1C0F81412002070470220704708B5FC
:1057980001F03EFD002008BD08B5D0F8143233B141
:1057A8001B68984708B9002008BD0220FCE70220C2
:1057B800FAE708B5D0F814325B689847002008BDAE
:1057C80038B5044600F50275284600F01DF9012396
:1057D800C4F8F431B4F80E32C4F8F83194F8081269
:1057E80001F01F03012B0ED03BB1022B10D001F0AA
:1057F8008001204601F039FD03E02946204600F0EB
:1058080080FA002038BD2946204600F09EFAF8E7C5
:105818002946204600F0B5FAF3E710B5044621BB47
:105828001346D0F8F421032A01D0002010BDD0F887
:105838000C11D0F8102191420CD8D0F814321B6901
:1058480023B190F8FC21032A00D19847204600F0A4
:105858007DFBEAE7891AC0F80C118A4228BF0A467C
:1058680092B2194600F06AFBDFE70A46D0F8143214
:105878009B69002BD9D090F8FC110329D5D111468A
:105888009847D2E710B50446002946D11346D0F808
:10589800F421022A05D094F80032012B39D00020D7
:1058A80010BDC169026A914219D88169B1FBF2F34E
:1058B80002FB13132BB98A4203D8D0F8F831994266
:1058C8001AD3D4F81432DB682BB194F8FC21032ADC
:1058D80001D120469847204600F043FBDBE78A1AAF
:1058E800C26192B2194600F012FB00231A4619460B
:1058F800204601F009FDCEE70022114600F007FB23
:105908000021C4F8F8110B460A46204601F0FCFCB9
:10591800C1E7002384F80032C1E70A46D0F8143200
:105928005B69002BBBD090F8FC110329B7D1114655
:105938009847B4E738B5044640230022114601F0E1
:1059480075FC4025C4F810512B46002280212046C2
:1059580001F06CFC2562012384F8FC31D4F818327C
:105968002BB1D4F814325B6821792046984700207F
:1059780038BD01740020704790F8FC3180F8FD3183
:10598800042380F8FC310020704790F8FD3180F83E
:10599800FC310020704708B590F8FC31032B01D08A
:1059A800002008BDD0F81432DB69002BF8D09847E6
:1059B800F6E700207047002070470020704708B5C0
:1059C800012280F8FC21D0F814225268017990470E
:1059D800002008BD002302E00133DBB20130027869
:1059E800002AF9D1184670474B88012B0BD110B506
:1059F8000446C0F80432D0F814329B689847204611
:105A080000F0A4FA10BD70470B7803704B78437010
:105A18008B78CA7803EB022343800B794A7903EB2E
:105A2800022383808B79CA7903EB0223C3807047F2
:105A380010B50446802101F018FC0021204601F031
:105A480014FC10BD30B583B004460D4649880B0AD6
:105A5800013B062B00F28480DFE803F00413278261
:105A680082667300D0F810321B680DF10601007CC5
:105A78009847BDF8062012B1EB88002B74D103B00B
:105A880030BD037C43B9D0F814329B6A0DF106008F
:105A9800984702234370ECE7D0F81432DB6A0DF123
:105AA8000600984702234370E3E7C9B2052934D8B2
:105AB800DFE801F0030B131B232BD0F810325B68CF
:105AC8000DF10601007C9847D3E7D0F810329B68A7
